{
  "contractName": "HashedTimelockERC20",
  "abi": [
    {
      "anonymous": false,
      "inputs": [
        {
          "indexed": true,
          "internalType": "bytes32",
          "name": "contractId",
          "type": "bytes32"
        },
        {
          "indexed": false,
          "internalType": "bytes32",
          "name": "secretKey",
          "type": "bytes32"
        }
      ],
      "name": "claimedSwap",
      "type": "event"
    },
    {
      "anonymous": false,
      "inputs": [
        {
          "indexed": true,
          "internalType": "bytes32",
          "name": "contractId",
          "type": "bytes32"
        },
        {
          "indexed": true,
          "internalType": "address",
          "name": "sender",
          "type": "address"
        },
        {
          "indexed": true,
          "internalType": "address",
          "name": "receiver",
          "type": "address"
        },
        {
          "indexed": false,
          "internalType": "address",
          "name": "tokenContract",
          "type": "address"
        },
        {
          "indexed": false,
          "internalType": "uint256",
          "name": "tokenAmount",
          "type": "uint256"
        },
        {
          "indexed": false,
          "internalType": "bytes32",
          "name": "hashlock",
          "type": "bytes32"
        },
        {
          "indexed": false,
          "internalType": "uint256",
          "name": "timelock",
          "type": "uint256"
        }
      ],
      "name": "newSwap",
      "type": "event"
    },
    {
      "anonymous": false,
      "inputs": [
        {
          "indexed": true,
          "internalType": "bytes32",
          "name": "contractId",
          "type": "bytes32"
        }
      ],
      "name": "refundedSwap",
      "type": "event"
    },
    {
      "inputs": [
        {
          "internalType": "address",
          "name": "_receiver",
          "type": "address"
        },
        {
          "internalType": "address",
          "name": "_tokenContract",
          "type": "address"
        },
        {
          "internalType": "bytes32",
          "name": "_hashlock",
          "type": "bytes32"
        },
        {
          "internalType": "uint256",
          "name": "_timelock",
          "type": "uint256"
        },
        {
          "internalType": "uint256",
          "name": "_tokenAmount",
          "type": "uint256"
        }
      ],
      "name": "setSwap",
      "outputs": [
        {
          "internalType": "bytes32",
          "name": "contractId",
          "type": "bytes32"
        }
      ],
      "stateMutability": "nonpayable",
      "type": "function"
    },
    {
      "inputs": [
        {
          "internalType": "bytes32",
          "name": "_contractId",
          "type": "bytes32"
        },
        {
          "internalType": "bytes32",
          "name": "_secretKey",
          "type": "bytes32"
        }
      ],
      "name": "claim",
      "outputs": [
        {
          "internalType": "bool",
          "name": "",
          "type": "bool"
        }
      ],
      "stateMutability": "nonpayable",
      "type": "function"
    },
    {
      "inputs": [
        {
          "internalType": "bytes32",
          "name": "_contractId",
          "type": "bytes32"
        }
      ],
      "name": "refund",
      "outputs": [
        {
          "internalType": "bool",
          "name": "",
          "type": "bool"
        }
      ],
      "stateMutability": "nonpayable",
      "type": "function"
    },
    {
      "inputs": [
        {
          "internalType": "bytes32",
          "name": "_contractId",
          "type": "bytes32"
        }
      ],
      "name": "getContract",
      "outputs": [
        {
          "internalType": "address",
          "name": "sender",
          "type": "address"
        },
        {
          "internalType": "address",
          "name": "receiver",
          "type": "address"
        },
        {
          "internalType": "address",
          "name": "tokenContract",
          "type": "address"
        },
        {
          "internalType": "uint256",
          "name": "tokenAmount",
          "type": "uint256"
        },
        {
          "internalType": "bytes32",
          "name": "hashlock",
          "type": "bytes32"
        },
        {
          "internalType": "bytes32",
          "name": "secretKey",
          "type": "bytes32"
        },
        {
          "internalType": "uint256",
          "name": "timelock",
          "type": "uint256"
        },
        {
          "internalType": "bool",
          "name": "claimed",
          "type": "bool"
        },
        {
          "internalType": "bool",
          "name": "refunded",
          "type": "bool"
        }
      ],
      "stateMutability": "nonpayable",
      "type": "function"
    }
  ],
  "bytecode": "0x608060405234801561001057600080fd5b50611670806100206000396000f3fe608060405234801561001057600080fd5b506004361061004c5760003560e01c80637249fbb61461005157806384cc9dfb14610095578063db452e23146100e3578063e16c7d9814610179575b600080fd5b61007d6004803603602081101561006757600080fd5b8101908080359060200190929190505050610239565b60405180821515815260200191505060405180910390f35b6100cb600480360360408110156100ab57600080fd5b8101908080359060200190929190803590602001909291905050506106b6565b60405180821515815260200191505060405180910390f35b610163600480360360a08110156100f957600080fd5b81019080803573ffffffffffffffffffffffffffffffffffffffff169060200190929190803573ffffffffffffffffffffffffffffffffffffffff169060200190929190803590602001909291908035906020019092919080359060200190929190505050610c71565b6040518082815260200191505060405180910390f35b6101a56004803603602081101561018f57600080fd5b81019080803590602001909291905050506113aa565b604051808a73ffffffffffffffffffffffffffffffffffffffff1681526020018973ffffffffffffffffffffffffffffffffffffffff1681526020018873ffffffffffffffffffffffffffffffffffffffff16815260200187815260200186815260200185815260200184815260200183151581526020018215158152602001995050505050505050505060405180910390f35b6000816000151560008083815260200190815260200160002060070160009054906101000a900460ff161515146102d8576040517f08c379a000000000000000000000000000000000000000000000000000000000815260040180806020018281038252600f8152602001807f616c726561647920636c61696d6564000000000000000000000000000000000081525060200191505060405180910390fd5b6000151560008083815260200190815260200160002060070160019054906101000a900460ff16151514610374576040517f08c379a00000000000000000000000000000000000000000000000000000000081526004018080602001828103825260108152602001807f616c726561647920726566756e6465640000000000000000000000000000000081525060200191505060405180910390fd5b8261037e81611512565b6103f0576040517f08c379a00000000000000000000000000000000000000000000000000000000081526004018080602001828103825260198152602001807f636f6e7472616374496420646f6573206e6f742065786973740000000000000081525060200191505060405180910390fd5b3373ffffffffffffffffffffffffffffffffffffffff1660008086815260200190815260200160002060000160009054906101000a900473ffffffffffffffffffffffffffffffffffffffff1673ffffffffffffffffffffffffffffffffffffffff16146104c6576040517f08c379a000000000000000000000000000000000000000000000000000000000815260040180806020018281038252600a8152602001807f6e6f742073656e6465720000000000000000000000000000000000000000000081525060200191505060405180910390fd5b42600080868152602001908152602001600020600601541115610551576040517f08c379a00000000000000000000000000000000000000000000000000000000081526004018080602001828103825260158152602001807f74696d656c6f636b207374696c6c20616374697665000000000000000000000081525060200191505060405180910390fd5b600080600086815260200190815260200160002090508060020160009054906101000a900473ffffffffffffffffffffffffffffffffffffffff1673ffffffffffffffffffffffffffffffffffffffff1663a9059cbb8260000160009054906101000a900473ffffffffffffffffffffffffffffffffffffffff1683600301546040518363ffffffff1660e01b8152600401808373ffffffffffffffffffffffffffffffffffffffff16815260200182815260200192505050602060405180830381600087803b15801561062457600080fd5b505af1158015610638573d6000803e3d6000fd5b505050506040513d602081101561064e57600080fd5b81019080805190602001909291905050505060018160070160016101000a81548160ff021916908315150217905550847ffb5d3f0aa0cba05f52d3654cbe6db43991aa08412e34a9514bba17d963111eb460405160405180910390a260019350505050919050565b6000826000151560008083815260200190815260200160002060070160009054906101000a900460ff16151514610755576040517f08c379a000000000000000000000000000000000000000000000000000000000815260040180806020018281038252600f8152602001807f616c726561647920636c61696d6564000000000000000000000000000000000081525060200191505060405180910390fd5b6000151560008083815260200190815260200160002060070160019054906101000a900460ff161515146107f1576040517f08c379a00000000000000000000000000000000000000000000000000000000081526004018080602001828103825260108152602001807f616c726561647920726566756e6465640000000000000000000000000000000081525060200191505060405180910390fd5b836107fb81611512565b61086d576040517f08c379a00000000000000000000000000000000000000000000000000000000081526004018080602001828103825260198152602001807f636f6e7472616374496420646f6573206e6f742065786973740000000000000081525060200191505060405180910390fd5b600284604051602001808281526020019150506040516020818303038152906040526040518082805190602001908083835b602083106108c2578051825260208201915060208101905060208303925061089f565b6001836020036101000a038019825116818451168082178552505050505050905001915050602060405180830381855afa158015610904573d6000803e3d6000fd5b5050506040513d602081101561091957600080fd5b81019080805190602001909291905050506000808781526020019081526020016000206004015414610996576040517f08c379a00000000000000000000000000000000000000000000000000000000081526004018080602001828103825260238152602001806115f66023913960400191505060405180910390fd5b3373ffffffffffffffffffffffffffffffffffffffff1660008087815260200190815260200160002060010160009054906101000a900473ffffffffffffffffffffffffffffffffffffffff1673ffffffffffffffffffffffffffffffffffffffff1614610a6c576040517f08c379a000000000000000000000000000000000000000000000000000000000815260040180806020018281038252600c8152602001807f6e6f74207265636569766572000000000000000000000000000000000000000081525060200191505060405180910390fd5b42600080878152602001908152602001600020600601541015610af7576040517f08c379a00000000000000000000000000000000000000000000000000000000081526004018080602001828103825260188152602001807f74696d656c6f636b2074696d652068617320706173736564000000000000000081525060200191505060405180910390fd5b600080600087815260200190815260200160002090508060020160009054906101000a900473ffffffffffffffffffffffffffffffffffffffff1673ffffffffffffffffffffffffffffffffffffffff1663a9059cbb8260010160009054906101000a900473ffffffffffffffffffffffffffffffffffffffff1683600301546040518363ffffffff1660e01b8152600401808373ffffffffffffffffffffffffffffffffffffffff16815260200182815260200192505050602060405180830381600087803b158015610bca57600080fd5b505af1158015610bde573d6000803e3d6000fd5b505050506040513d6020811015610bf457600080fd5b81019080805190602001909291905050505084816005018190555060018160070160006101000a81548160ff021916908315150217905550857fc625233bff3f654cd1dae30bcb70eba05af6361cddc69e8d429d2c0b2d64e0ce866040518082815260200191505060405180910390a26001935050505092915050565b6000818573ffffffffffffffffffffffffffffffffffffffff1663dd62ed3e33306040518363ffffffff1660e01b8152600401808373ffffffffffffffffffffffffffffffffffffffff1681526020018273ffffffffffffffffffffffffffffffffffffffff1681526020019250505060206040518083038186803b158015610cf957600080fd5b505afa158015610d0d573d6000803e3d6000fd5b505050506040513d6020811015610d2357600080fd5b81019080805190602001909291905050501015610d8b576040517f08c379a00000000000000000000000000000000000000000000000000000000081526004018080602001828103825260268152602001806115816026913960400191505060405180910390fd5b60008311610e01576040517f08c379a00000000000000000000000000000000000000000000000000000000081526004018080602001828103825260208152602001807f74696d656c6f636b2068617320746f20626520696e207468652066757475726581525060200191505060405180910390fd5b60008211610e77576040517f08c379a00000000000000000000000000000000000000000000000000000000081526004018080602001828103825260188152602001807f746f6b656e20616d6f756e74206d757374206265203e2030000000000000000081525060200191505060405180910390fd5b600083420190506002338888888588604051602001808773ffffffffffffffffffffffffffffffffffffffff1660601b81526014018673ffffffffffffffffffffffffffffffffffffffff1660601b81526014018573ffffffffffffffffffffffffffffffffffffffff1660601b815260140184815260200183815260200182815260200196505050505050506040516020818303038152906040526040518082805190602001908083835b60208310610f465780518252602082019150602081019050602083039250610f23565b6001836020036101000a038019825116818451168082178552505050505050905001915050602060405180830381855afa158015610f88573d6000803e3d6000fd5b5050506040513d6020811015610f9d57600080fd5b81019080805190602001909291905050509150610fb982611512565b1561100f576040517f08c379a000000000000000000000000000000000000000000000000000000000815260040180806020018281038252604f8152602001806115a7604f913960600191505060405180910390fd5b8573ffffffffffffffffffffffffffffffffffffffff166323b872dd3330866040518463ffffffff1660e01b8152600401808473ffffffffffffffffffffffffffffffffffffffff1681526020018373ffffffffffffffffffffffffffffffffffffffff1681526020018281526020019350505050602060405180830381600087803b15801561109e57600080fd5b505af11580156110b2573d6000803e3d6000fd5b505050506040513d60208110156110c857600080fd5b810190808051906020019092919050505061112e576040517f08c379a00000000000000000000000000000000000000000000000000000000081526004018080602001828103825260228152602001806116196022913960400191505060405180910390fd5b6040518061012001604052803373ffffffffffffffffffffffffffffffffffffffff1681526020018873ffffffffffffffffffffffffffffffffffffffff1681526020018773ffffffffffffffffffffffffffffffffffffffff1681526020018481526020018681526020016000801b81526020018281526020016000151581526020016000151581525060008084815260200190815260200160002060008201518160000160006101000a81548173ffffffffffffffffffffffffffffffffffffffff021916908373ffffffffffffffffffffffffffffffffffffffff16021790555060208201518160010160006101000a81548173ffffffffffffffffffffffffffffffffffffffff021916908373ffffffffffffffffffffffffffffffffffffffff16021790555060408201518160020160006101000a81548173ffffffffffffffffffffffffffffffffffffffff021916908373ffffffffffffffffffffffffffffffffffffffff160217905550606082015181600301556080820151816004015560a0820151816005015560c0820151816006015560e08201518160070160006101000a81548160ff0219169083151502179055506101008201518160070160016101000a81548160ff0219169083151502179055509050508673ffffffffffffffffffffffffffffffffffffffff163373ffffffffffffffffffffffffffffffffffffffff16837f3fa709a0311217edaeaea55c71df90ea8dd060114921fe83fa18b1feb4e1945789878a87604051808573ffffffffffffffffffffffffffffffffffffffff16815260200184815260200183815260200182815260200194505050505060405180910390a45095945050505050565b6000806000806000806000806000896113c281611512565b611434576040517f08c379a00000000000000000000000000000000000000000000000000000000081526004018080602001828103825260198152602001807f636f6e7472616374496420646f6573206e6f742065786973740000000000000081525060200191505060405180910390fd5b60008060008d815260200190815260200160002090508060000160009054906101000a900473ffffffffffffffffffffffffffffffffffffffff168160010160009054906101000a900473ffffffffffffffffffffffffffffffffffffffff168260020160009054906101000a900473ffffffffffffffffffffffffffffffffffffffff1683600301548460040154856005015486600601548760070160009054906101000a900460ff168860070160019054906101000a900460ff169a509a509a509a509a509a509a509a509a5050509193959799909294969850565b60008073ffffffffffffffffffffffffffffffffffffffff1660008084815260200190815260200160002060000160009054906101000a900473ffffffffffffffffffffffffffffffffffffffff1673ffffffffffffffffffffffffffffffffffffffff161415905091905056fe746f6b656e20616c6c6f77616e6365206d757374206265203e20746f6b656e20616d6f756e74436f6e747261637420616c7265616479206578697374732c2075736520646966666572656e7420706172616d65746572732c20696465616c6c79206120646966666572656e7420686173686c6f636b686173686c6f636b20616e64207365637265744b657920646f206e6f74206d617463687472616e7366657246726f6d2073656e64657220746f2074686973206661696c6564a264697066735822122081e5e10f1d21e5e2bd51bcb0a2db682cc4b30476011bfbafbbaf4db350cba30964736f6c634300060c0033",
  "immutableReferences": {},
  "source": "pragma solidity ^0.6.0;\r\n\r\nimport \"@openzeppelin/contracts/token/ERC20/ERC20.sol\";\r\n\r\ncontract HashedTimelockERC20 {\r\n\r\n    event newSwap(\r\n        bytes32 indexed contractId,\r\n        address indexed sender,\r\n        address indexed receiver,\r\n        address tokenContract,\r\n        uint256 tokenAmount,\r\n        bytes32 hashlock,\r\n        uint256 timelock\r\n    );\r\n\r\n    event claimedSwap(bytes32 indexed contractId, bytes32 secretKey);\r\n\r\n    event refundedSwap(bytes32 indexed contractId);\r\n\r\n    struct HTLC {\r\n        address sender;\r\n        address receiver;\r\n        address tokenContract;\r\n        uint256 tokenAmount;\r\n        bytes32 hashlock;\r\n        bytes32 secretKey;\r\n        uint256 timelock;\r\n        bool claimed;\r\n        bool refunded;\r\n    }\r\n\r\n    mapping(bytes32 => HTLC) contracts;\r\n\r\n    function setSwap(\r\n        address _receiver,\r\n        address _tokenContract,\r\n        bytes32 _hashlock,\r\n        uint256 _timelock,\r\n        uint256 _tokenAmount\r\n    ) public returns (bytes32 contractId) {\r\n        require(ERC20(_tokenContract).allowance(msg.sender, address(this)) >= _tokenAmount, \"token allowance must be > token amount\");\r\n        // require(ERC20(_tokenContract).balanceOf(msg.sender) >= _tokenAmount, \"token amount exceeds balance\");\r\n        require(_timelock > 0, \"timelock has to be in the future\");\r\n        require(_tokenAmount > 0, \"token amount must be > 0\");\r\n\r\n        uint256 timelocked = block.timestamp + _timelock;\r\n\r\n        contractId = sha256(abi.encodePacked(msg.sender, _receiver, _tokenContract, _hashlock, timelocked, _tokenAmount));\r\n\r\n        if (existingHTLC(contractId)) {\r\n            revert(\"Contract already exists, use different parameters, ideally a different hashlock\");\r\n        }\r\n\r\n        if (!ERC20(_tokenContract).transferFrom(msg.sender, address(this), _tokenAmount)) {\r\n            revert(\"transferFrom sender to this failed\");\r\n        }\r\n\r\n        /*\r\n        if(!ERC20(_tokenContract).transfer(address(this), _tokenAmount), {from: accounts[0]}) {\r\n            revert(\"transfer to this failed\");\r\n        }\r\n        */\r\n\r\n        contracts[contractId] = HTLC(\r\n            msg.sender,\r\n            _receiver,\r\n            _tokenContract,\r\n            _tokenAmount,\r\n            _hashlock,\r\n            0x0,\r\n            timelocked,\r\n            false,\r\n            false\r\n        );\r\n\r\n        emit newSwap(\r\n            contractId,\r\n            msg.sender,\r\n            _receiver,\r\n            _tokenContract,\r\n            _tokenAmount,\r\n            _hashlock,\r\n            timelocked\r\n        );\r\n    }\r\n\r\n    function claim(bytes32 _contractId, bytes32 _secretKey)\r\n    external\r\n    contractNeitherClaimedNorRefunded(_contractId)\r\n    contractExists(_contractId) returns (bool)\r\n    {\r\n        require(contracts[_contractId].hashlock == sha256(abi.encodePacked(_secretKey)), \"hashlock and secretKey do not match\");\r\n        require(contracts[_contractId].receiver == msg.sender, \"not receiver\");\r\n        // require(contracts[_contractId].claimed == false, \"already claimed\");\r\n        // require(contracts[_contractId].refunded == false, \"already refunded\");\r\n        require(contracts[_contractId].timelock >= block.timestamp, \"timelock time has passed\");\r\n\r\n        HTLC storage a = contracts[_contractId];\r\n        ERC20(a.tokenContract).transfer(a.receiver, a.tokenAmount);\r\n        a.secretKey = _secretKey;\r\n        a.claimed = true;\r\n\r\n        emit claimedSwap(_contractId, _secretKey);\r\n        return true;\r\n    }\r\n\r\n    function refund(bytes32 _contractId)\r\n    external\r\n    contractNeitherClaimedNorRefunded(_contractId)\r\n    contractExists(_contractId) returns (bool)\r\n    {\r\n        require(contracts[_contractId].sender == msg.sender, \"not sender\");\r\n        // require(contracts[_contractId].claimed == false, \"already claimed\");\r\n        // require(contracts[_contractId].refunded == false, \"already refunded\");\r\n        require(contracts[_contractId].timelock <= block.timestamp, \"timelock still active\");\r\n\r\n        HTLC storage a = contracts[_contractId];\r\n        ERC20(a.tokenContract).transfer(a.sender, a.tokenAmount);\r\n        a.refunded = true;\r\n\r\n        emit refundedSwap(_contractId);\r\n        return true;\r\n    }\r\n\r\n    function getContract(bytes32 _contractId)\r\n    public\r\n    contractExists(_contractId) returns (\r\n        address sender,\r\n        address receiver,\r\n        address tokenContract,\r\n        uint256 tokenAmount,\r\n        bytes32 hashlock,\r\n        bytes32 secretKey,\r\n        uint256 timelock,\r\n        bool claimed,\r\n        bool refunded\r\n    )\r\n    {\r\n        HTLC storage a = contracts[_contractId];\r\n        return (\r\n        a.sender,\r\n        a.receiver,\r\n        a.tokenContract,\r\n        a.tokenAmount,\r\n        a.hashlock,\r\n        a.secretKey,\r\n        a.timelock,\r\n        a.claimed,\r\n        a.refunded\r\n        );\r\n    }\r\n\r\n    function existingHTLC(bytes32 _contractId) internal returns (bool exists) {\r\n        exists = (contracts[_contractId].sender != address(0));\r\n    }\r\n\r\n    modifier contractExists(bytes32 _contractId) {\r\n        require(existingHTLC(_contractId), \"contractId does not exist\");\r\n        _;\r\n    }\r\n\r\n    modifier contractNeitherClaimedNorRefunded(bytes32 _contractId) {\r\n        require(contracts[_contractId].claimed == false, \"already claimed\");\r\n        require(contracts[_contractId].refunded == false, \"already refunded\");\r\n        _;\r\n    }\r\n}\r\n",
  "sourcePath": "/Users/maxi/Library/Mobile Documents/com~apple~CloudDocs/Documents/Studium/5. Semester/Projektseminar/Solidity/Projektseminar/TokenSwap/contracts/HashedTimelockERC20.sol",
  "compiler": {
    "name": "solc",
    "version": "0.6.12+commit.27d51765.Emscripten.clang"
  },
  "schemaVersion": "3.2.5",
  "updatedAt": "2020-11-24T13:40:30.299Z",
  "networkType": "ethereum",
  "devdoc": {
    "kind": "dev",
    "methods": {},
    "version": 1
  },
  "userdoc": {
    "kind": "user",
    "methods": {},
    "version": 1
  }
}